{
  "contractName": "MagicItemBase",
  "abi": [
    {
      "anonymous": false,
      "inputs": [
        {
          "indexed": false,
          "internalType": "uint16",
          "name": "_tokenID",
          "type": "uint16"
        },
        {
          "indexed": false,
          "internalType": "uint8",
          "name": "_rand",
          "type": "uint8"
        }
      ],
      "name": "Destroyed",
      "type": "event"
    },
    {
      "anonymous": false,
      "inputs": [
        {
          "indexed": true,
          "internalType": "address",
          "name": "_digger",
          "type": "address"
        },
        {
          "indexed": false,
          "internalType": "uint16",
          "name": "_tokenID",
          "type": "uint16"
        }
      ],
      "name": "NewMagicItem",
      "type": "event"
    },
    {
      "anonymous": false,
      "inputs": [
        {
          "indexed": true,
          "internalType": "address",
          "name": "previousOwner",
          "type": "address"
        },
        {
          "indexed": true,
          "internalType": "address",
          "name": "newOwner",
          "type": "address"
        }
      ],
      "name": "OwnershipTransferred",
      "type": "event"
    },
    {
      "anonymous": false,
      "inputs": [
        {
          "indexed": true,
          "internalType": "address",
          "name": "_from",
          "type": "address"
        },
        {
          "indexed": true,
          "internalType": "address",
          "name": "_to",
          "type": "address"
        },
        {
          "indexed": false,
          "internalType": "uint16",
          "name": "_tokenId",
          "type": "uint16"
        }
      ],
      "name": "Transfer",
      "type": "event"
    },
    {
      "inputs": [
        {
          "internalType": "uint16",
          "name": "",
          "type": "uint16"
        }
      ],
      "name": "magicitemExist",
      "outputs": [
        {
          "internalType": "bool",
          "name": "",
          "type": "bool"
        }
      ],
      "stateMutability": "view",
      "type": "function"
    },
    {
      "inputs": [
        {
          "internalType": "uint16",
          "name": "",
          "type": "uint16"
        }
      ],
      "name": "magicitemIndexToOwner",
      "outputs": [
        {
          "internalType": "address",
          "name": "",
          "type": "address"
        }
      ],
      "stateMutability": "view",
      "type": "function"
    },
    {
      "inputs": [],
      "name": "owner",
      "outputs": [
        {
          "internalType": "address",
          "name": "",
          "type": "address"
        }
      ],
      "stateMutability": "view",
      "type": "function"
    },
    {
      "inputs": [
        {
          "internalType": "address",
          "name": "",
          "type": "address"
        }
      ],
      "name": "ownerToNumMagicItem",
      "outputs": [
        {
          "internalType": "uint256",
          "name": "",
          "type": "uint256"
        }
      ],
      "stateMutability": "view",
      "type": "function"
    },
    {
      "inputs": [],
      "name": "renounceOwnership",
      "outputs": [],
      "stateMutability": "nonpayable",
      "type": "function"
    },
    {
      "inputs": [
        {
          "internalType": "address",
          "name": "newOwner",
          "type": "address"
        }
      ],
      "name": "transferOwnership",
      "outputs": [],
      "stateMutability": "nonpayable",
      "type": "function"
    },
    {
      "inputs": [
        {
          "internalType": "address",
          "name": "_owner",
          "type": "address"
        }
      ],
      "name": "balanceOf",
      "outputs": [
        {
          "internalType": "uint256",
          "name": "balance",
          "type": "uint256"
        }
      ],
      "stateMutability": "view",
      "type": "function"
    },
    {
      "inputs": [],
      "name": "totalSupply",
      "outputs": [
        {
          "internalType": "uint256",
          "name": "",
          "type": "uint256"
        }
      ],
      "stateMutability": "view",
      "type": "function"
    },
    {
      "inputs": [
        {
          "internalType": "address",
          "name": "_owner",
          "type": "address"
        }
      ],
      "name": "tokensOfOwner",
      "outputs": [
        {
          "internalType": "uint16[]",
          "name": "ownerTokens",
          "type": "uint16[]"
        }
      ],
      "stateMutability": "view",
      "type": "function"
    },
    {
      "inputs": [
        {
          "internalType": "uint16",
          "name": "_tokenId",
          "type": "uint16"
        }
      ],
      "name": "ownerOf",
      "outputs": [
        {
          "internalType": "address",
          "name": "_owner",
          "type": "address"
        }
      ],
      "stateMutability": "view",
      "type": "function"
    },
    {
      "inputs": [
        {
          "internalType": "uint16",
          "name": "_tokenId",
          "type": "uint16"
        }
      ],
      "name": "exists",
      "outputs": [
        {
          "internalType": "bool",
          "name": "exist",
          "type": "bool"
        }
      ],
      "stateMutability": "view",
      "type": "function"
    },
    {
      "inputs": [
        {
          "internalType": "address",
          "name": "_from",
          "type": "address"
        },
        {
          "internalType": "address",
          "name": "_to",
          "type": "address"
        },
        {
          "internalType": "uint16",
          "name": "_tokenId",
          "type": "uint16"
        }
      ],
      "name": "transferFrom",
      "outputs": [],
      "stateMutability": "nonpayable",
      "type": "function"
    },
    {
      "inputs": [],
      "name": "dig",
      "outputs": [],
      "stateMutability": "payable",
      "type": "function"
    },
    {
      "inputs": [
        {
          "internalType": "uint16",
          "name": "_tokenId",
          "type": "uint16"
        }
      ],
      "name": "use",
      "outputs": [],
      "stateMutability": "nonpayable",
      "type": "function"
    }
  ],
  "bytecode": "0x608060405234801561001057600080fd5b5060006100216100c460201b60201c565b9050806000806101000a81548173ffffffffffffffffffffffffffffffffffffffff021916908373ffffffffffffffffffffffffffffffffffffffff1602179055508073ffffffffffffffffffffffffffffffffffffffff16600073ffffffffffffffffffffffffffffffffffffffff167f8be0079c531659141344cd1fd0a4f28419497f9722a3daafe3b4186f6b6457e060405160405180910390a3506100cc565b600033905090565b61175c806100db6000396000f3fe6080604052600436106100dd5760003560e01c8063715018a61161007f5780638da5cb5b116100595780638da5cb5b14610472578063c8a3077e146104c9578063ed64507914610520578063f2fde38b1461055f576100dd565b8063715018a61461033657806382a7cf1e1461034d5780638462151c146103cc576100dd565b80634c6e4984116100bb5780634c6e49841461016e5780634ec3dcfe146101ed5780636747d5b01461026c57806370a08231146102d1576100dd565b8063040e176f146100e257806318160ddd146100ec57806333c718f314610117575b600080fd5b6100ea6105b0565b005b3480156100f857600080fd5b50610101610871565b6040518082815260200191505060405180910390f35b34801561012357600080fd5b506101546004803603602081101561013a57600080fd5b81019080803561ffff16906020019092919050505061087e565b604051808215151515815260200191505060405180910390f35b34801561017a57600080fd5b506101ab6004803603602081101561019157600080fd5b81019080803561ffff16906020019092919050505061089e565b604051808273ffffffffffffffffffffffffffffffffffffffff1673ffffffffffffffffffffffffffffffffffffffff16815260200191505060405180910390f35b3480156101f957600080fd5b5061026a6004803603606081101561021057600080fd5b81019080803573ffffffffffffffffffffffffffffffffffffffff169060200190929190803573ffffffffffffffffffffffffffffffffffffffff169060200190929190803561ffff1690602001909291905050506108d1565b005b34801561027857600080fd5b506102bb6004803603602081101561028f57600080fd5b81019080803573ffffffffffffffffffffffffffffffffffffffff169060200190929190505050610c04565b6040518082815260200191505060405180910390f35b3480156102dd57600080fd5b50610320600480360360208110156102f457600080fd5b81019080803573ffffffffffffffffffffffffffffffffffffffff169060200190929190505050610c1c565b6040518082815260200191505060405180910390f35b34801561034257600080fd5b5061034b610c65565b005b34801561035957600080fd5b5061038a6004803603602081101561037057600080fd5b81019080803561ffff169060200190929190505050610ded565b604051808273ffffffffffffffffffffffffffffffffffffffff1673ffffffffffffffffffffffffffffffffffffffff16815260200191505060405180910390f35b3480156103d857600080fd5b5061041b600480360360208110156103ef57600080fd5b81019080803573ffffffffffffffffffffffffffffffffffffffff169060200190929190505050610e32565b6040518080602001828103825283818151815260200191508051906020019060200280838360005b8381101561045e578082015181840152602081019050610443565b505050509050019250505060405180910390f35b34801561047e57600080fd5b50610487610fe1565b604051808273ffffffffffffffffffffffffffffffffffffffff1673ffffffffffffffffffffffffffffffffffffffff16815260200191505060405180910390f35b3480156104d557600080fd5b50610506600480360360208110156104ec57600080fd5b81019080803561ffff16906020019092919050505061100a565b604051808215151515815260200191505060405180910390f35b34801561052c57600080fd5b5061055d6004803603602081101561054357600080fd5b81019080803561ffff16906020019092919050505061103c565b005b34801561056b57600080fd5b506105ae6004803603602081101561058257600080fd5b81019080803573ffffffffffffffffffffffffffffffffffffffff16906020019092919050505061130a565b005b67016345785d8a0000341015610611576040517f08c379a00000000000000000000000000000000000000000000000000000000081526004018080602001828103825260388152602001806116ef6038913960400191505060405180910390fd5b6000600143034060001c90506000610bb861ffff16828161062e57fe5b0690505b600460008261ffff1661ffff16815260200190815260200160002060009054906101000a900460ff161561068157600143034060001c9150610bb861ffff16828161067957fe5b069050610632565b6001600460008361ffff1661ffff16815260200190815260200160002060006101000a81548160ff0219169083151502179055506106bd6116b1565b81816000019061ffff16908161ffff16815250506001819080600181540180825580915050600190039060005260206000200160009091909190915060008201518160000160006101000a81548161ffff021916908361ffff16021790555050503360026000836000015161ffff1661ffff16815260200190815260200160002060006101000a81548173ffffffffffffffffffffffffffffffffffffffff021916908373ffffffffffffffffffffffffffffffffffffffff1602179055506107cf6001600360003373ffffffffffffffffffffffffffffffffffffffff1673ffffffffffffffffffffffffffffffffffffffff1681526020019081526020016000205461151790919063ffffffff16565b600360003373ffffffffffffffffffffffffffffffffffffffff1673ffffffffffffffffffffffffffffffffffffffff168152602001908152602001600020819055503373ffffffffffffffffffffffffffffffffffffffff167f2396c778c954ba20e138e5a8664be77f36d2498038399f120a7a6533ca7a8b908260000151604051808261ffff1661ffff16815260200191505060405180910390a2505050565b6000600180549050905090565b60046020528060005260406000206000915054906101000a900460ff1681565b60026020528060005260406000206000915054906101000a900473ffffffffffffffffffffffffffffffffffffffff1681565b3373ffffffffffffffffffffffffffffffffffffffff16600260008361ffff1661ffff16815260200190815260200160002060009054906101000a900473ffffffffffffffffffffffffffffffffffffffff1673ffffffffffffffffffffffffffffffffffffffff161461094457600080fd5b3373ffffffffffffffffffffffffffffffffffffffff168373ffffffffffffffffffffffffffffffffffffffff1614806109a957503073ffffffffffffffffffffffffffffffffffffffff168373ffffffffffffffffffffffffffffffffffffffff16145b6109f6576040517f08c379a0000000000000000000000000000000000000000000000000000000008152600401808060200182810382526000815260200160200191505060405180910390fd5b6107d061ffff168161ffff1610610a0c57600080fd5b81600260008361ffff1661ffff16815260200190815260200160002060006101000a81548173ffffffffffffffffffffffffffffffffffffffff021916908373ffffffffffffffffffffffffffffffffffffffff160217905550610ab96001600360008673ffffffffffffffffffffffffffffffffffffffff1673ffffffffffffffffffffffffffffffffffffffff1681526020019081526020016000205461159f90919063ffffffff16565b600360008573ffffffffffffffffffffffffffffffffffffffff1673ffffffffffffffffffffffffffffffffffffffff16815260200190815260200160002081905550610b4f6001600360008573ffffffffffffffffffffffffffffffffffffffff1673ffffffffffffffffffffffffffffffffffffffff1681526020019081526020016000205461151790919063ffffffff16565b600360008473ffffffffffffffffffffffffffffffffffffffff1673ffffffffffffffffffffffffffffffffffffffff168152602001908152602001600020819055508173ffffffffffffffffffffffffffffffffffffffff168373ffffffffffffffffffffffffffffffffffffffff167f89896edbd223c9360ce42ddfed7522a2bffb20c056e4c42d42370cb493b6567683604051808261ffff1661ffff16815260200191505060405180910390a3505050565b60036020528060005260406000206000915090505481565b6000600360008373ffffffffffffffffffffffffffffffffffffffff1673ffffffffffffffffffffffffffffffffffffffff168152602001908152602001600020549050919050565b610c6d6115e9565b73ffffffffffffffffffffffffffffffffffffffff166000809054906101000a900473ffffffffffffffffffffffffffffffffffffffff1673ffffffffffffffffffffffffffffffffffffffff1614610d2e576040517f08c379a00000000000000000000000000000000000000000000000000000000081526004018080602001828103825260208152602001807f4f776e61626c653a2063616c6c6572206973206e6f7420746865206f776e657281525060200191505060405180910390fd5b600073ffffffffffffffffffffffffffffffffffffffff166000809054906101000a900473ffffffffffffffffffffffffffffffffffffffff1673ffffffffffffffffffffffffffffffffffffffff167f8be0079c531659141344cd1fd0a4f28419497f9722a3daafe3b4186f6b6457e060405160405180910390a360008060006101000a81548173ffffffffffffffffffffffffffffffffffffffff021916908373ffffffffffffffffffffffffffffffffffffffff160217905550565b6000600260008361ffff1661ffff16815260200190815260200160002060009054906101000a900473ffffffffffffffffffffffffffffffffffffffff169050919050565b60606000610e3f83610c1c565b905060008090506000821415610ea057600067ffffffffffffffff81118015610e6757600080fd5b50604051908082528060200260200182016040528015610e965781602001602082028036833780820191505090505b5092505050610fdc565b60608267ffffffffffffffff81118015610eb957600080fd5b50604051908082528060200260200182016040528015610ee85781602001602082028036833780820191505090505b5090506000610ef5610871565b905060008090505b818160ff161015610fd3578673ffffffffffffffffffffffffffffffffffffffff16610f5360018360ff1681548110610f3257fe5b9060005260206000200160000160009054906101000a900461ffff16610ded565b73ffffffffffffffffffffffffffffffffffffffff161415610fc65760018160ff1681548110610f7f57fe5b9060005260206000200160000160009054906101000a900461ffff16838581518110610fa757fe5b602002602001019061ffff16908161ffff168152505083806001019450505b8080600101915050610efd565b82955050505050505b919050565b60008060009054906101000a900473ffffffffffffffffffffffffffffffffffffffff16905090565b6000600460008361ffff1661ffff16815260200190815260200160002060009054906101000a900460ff169050919050565b3373ffffffffffffffffffffffffffffffffffffffff16600260008361ffff1661ffff16815260200190815260200160002060009054906101000a900473ffffffffffffffffffffffffffffffffffffffff1673ffffffffffffffffffffffffffffffffffffffff16146110af57600080fd5b6000600a600143034060001c816110c257fe5b06905060008160ff1614156112b95760008090505b8261ffff16600182815481106110e957fe5b9060005260206000200160000160009054906101000a900461ffff1661ffff161461111b5780806001019150506110d7565b6001808080549050038154811061112e57fe5b906000526020600020016001828154811061114557fe5b906000526020600020016000820160009054906101000a900461ffff168160000160006101000a81548161ffff021916908361ffff160217905550905050600180548061118e57fe5b60019003818190600052602060002001600080820160006101000a81549061ffff021916905550509055600260008461ffff1661ffff16815260200190815260200160002060006101000a81549073ffffffffffffffffffffffffffffffffffffffff0219169055600460008461ffff1661ffff16815260200190815260200160002060006101000a81549060ff02191690556112746001600360003373ffffffffffffffffffffffffffffffffffffffff1673ffffffffffffffffffffffffffffffffffffffff1681526020019081526020016000205461159f90919063ffffffff16565b600360003373ffffffffffffffffffffffffffffffffffffffff1673ffffffffffffffffffffffffffffffffffffffff16815260200190815260200160002081905550505b7f5570c99af0f9ee6f3f06f78720b653b8ad71c93b1bce85b1281590c608a71ade8282604051808361ffff1661ffff1681526020018260ff1660ff1681526020019250505060405180910390a15050565b6113126115e9565b73ffffffffffffffffffffffffffffffffffffffff166000809054906101000a900473ffffffffffffffffffffffffffffffffffffffff1673ffffffffffffffffffffffffffffffffffffffff16146113d3576040517f08c379a00000000000000000000000000000000000000000000000000000000081526004018080602001828103825260208152602001807f4f776e61626c653a2063616c6c6572206973206e6f7420746865206f776e657281525060200191505060405180910390fd5b600073ffffffffffffffffffffffffffffffffffffffff168173ffffffffffffffffffffffffffffffffffffffff161415611459576040517f08c379a00000000000000000000000000000000000000000000000000000000081526004018080602001828103825260268152602001806116c96026913960400191505060405180910390fd5b8073ffffffffffffffffffffffffffffffffffffffff166000809054906101000a900473ffffffffffffffffffffffffffffffffffffffff1673ffffffffffffffffffffffffffffffffffffffff167f8be0079c531659141344cd1fd0a4f28419497f9722a3daafe3b4186f6b6457e060405160405180910390a3806000806101000a81548173ffffffffffffffffffffffffffffffffffffffff021916908373ffffffffffffffffffffffffffffffffffffffff16021790555050565b600080828401905083811015611595576040517f08c379a000000000000000000000000000000000000000000000000000000000815260040180806020018281038252601b8152602001807f536166654d6174683a206164646974696f6e206f766572666c6f77000000000081525060200191505060405180910390fd5b8091505092915050565b60006115e183836040518060400160405280601e81526020017f536166654d6174683a207375627472616374696f6e206f766572666c6f7700008152506115f1565b905092915050565b600033905090565b600083831115829061169e576040517f08c379a00000000000000000000000000000000000000000000000000000000081526004018080602001828103825283818151815260200191508051906020019080838360005b83811015611663578082015181840152602081019050611648565b50505050905090810190601f1680156116905780820380516001836020036101000a031916815260200191505b509250505060405180910390fd5b5060008385039050809150509392505050565b6040518060200160405280600061ffff168152509056fe4f776e61626c653a206e6577206f776e657220697320746865207a65726f2061646472657373596f75206d75737420706179206174206c6561737420302e3120657468657220746f2064696720666f72206e6577204d616769634974656da264697066735822122056e94fb3d95a660b48545953098313a49dffe6e3ca0e8fa75d97c54a13fbb7bb64736f6c634300060a0033",
  "immutableReferences": {},
  "source": "pragma solidity ^0.6.0;\n\nimport \"@openzeppelin/contracts/math/SafeMath.sol\";\t\nimport \"@openzeppelin/contracts/access/Ownable.sol\";\n\ncontract MagicItemBase is Ownable {\n\n\tusing SafeMath for uint16;\n\tusing SafeMath for uint256;\n\n\n\t/// @dev EVENTS\n\n\tevent Transfer(address indexed _from, address indexed _to, uint16 _tokenId);\n\tevent NewMagicItem(address indexed _digger, uint16 _tokenID);\n\tevent Destroyed(uint16 _tokenID, uint8 _rand);\n\n\t/// @dev DATA TYPES\n\n\tstruct MagicItem {\n\t\tuint16 id; \t/* rarity * 1000 + type * 100 + design * 10 + state */\n\t\t// uint8 rarity; \t/* 0 (current), 1 (rare) or 2 (divine) */\n\t\t// uint8 object;\t\t/* 0 to 9 */ \n\t\t// uint8 version; \t/* 0 to 5 (0 = basic to 5 = high tech) */\n\t\t// uint8 state;\t/* 0 to 4 (0 = new to 4 = worn) */\n\t}\n\n\t/// @dev CONSTANTS\n\n  \tuint16 constant MAX_MI_ID = 3000;\n  \tuint16 constant DIVINE_MI_ID = 2000;\n\n  \t/// @dev STORAGE ***/\n\n    /// @dev An array containing MagicItem struct for all magic items in existence. The ID\n    ///  of each magic item is actually an index into this array.\n\n\tMagicItem[] magicitems;\n\n\t/// @dev A mapping from magic item IDs to the address that owns them. All magic items have\n    ///  some valid owner address.\n\tmapping (uint16 => address) public magicitemIndexToOwner;\n\n\t// @dev A mapping from owner address to count of tokens that address owns.\n    //  Used internally inside balanceOf() to resolve ownership count.\n\tmapping (address => uint256) public ownerToNumMagicItem;\n\n\t// @dev A mapping from owner address to count of tokens that address owns.\n    //  Used internally inside balanceOf() to resolve ownership count.\n  \tmapping (uint16 => bool) public magicitemExist;\n\n  \tfunction balanceOf(address _owner) public view returns (uint256 balance) {\n  \t\treturn ownerToNumMagicItem[_owner];\n  \t}\n\n  \tfunction totalSupply() public view returns (uint256) {\n  \t\treturn magicitems.length;\n    }\n\n  \tfunction tokensOfOwner(address _owner) external view returns (uint16[] memory ownerTokens){\n\n  \t\tuint256 tokenCount = balanceOf(_owner);\n  \t\tuint256 resultIndex = 0;\n\n  \t\tif (tokenCount == 0) {\n            // Return an empty array\n            return new uint16[](0);\n        } else {\n        \tuint16[] memory _IDs = new uint16[](tokenCount);\n        \tuint256 totalMagicItems = totalSupply();\t\t\n\t  \t\tuint8 i;\n\n\t  \t\tfor (i = 0; i < totalMagicItems; i++){\n\t  \t\t\tif (ownerOf(magicitems[i].id) == _owner) {\n\t  \t\t\t\t_IDs[resultIndex] = magicitems[i].id;\n\t  \t\t\t\tresultIndex++;\n\t  \t\t\t}\n\t  \t\t}\n  \t\t\treturn _IDs;\n  \t\t}\n  \t}\n\n  \tfunction ownerOf(uint16 _tokenId) public view returns (address _owner){\n  \t\treturn magicitemIndexToOwner[_tokenId];\n\t}\n\n\tfunction exists(uint16 _tokenId) public view returns (bool exist){\n\t\treturn magicitemExist[_tokenId];\n\n\t}\n\n\tfunction transferFrom(address _from, address _to, uint16 _tokenId) public {\n\t\trequire(magicitemIndexToOwner[_tokenId] == msg.sender);\n\t\trequire(((_from == msg.sender) || (_from == address(this))),\"\");\n\t\trequire(_tokenId < DIVINE_MI_ID);\n\n\t\tmagicitemIndexToOwner[_tokenId] = _to;\n\t\townerToNumMagicItem[_from] = ownerToNumMagicItem[_from].sub(1);\n\t\townerToNumMagicItem[_to] = ownerToNumMagicItem[_to].add(1); \n\n\t\temit Transfer(_from, _to, _tokenId);\n\t}\n\n\tfunction dig() public payable {\n\n\t\trequire(msg.value >= 0.1 ether, \"You must pay at least 0.1 ether to dig for new MagicItem\");\n\n\t\tuint256 _rand = (uint256)(blockhash(block.number - 1));\n\t\tuint16 _newID = (uint16)(_rand % MAX_MI_ID);\n\t\twhile (magicitemExist[_newID]){\n\t\t\t_rand = (uint256)(blockhash(block.number - 1));\n\t\t\t_newID = (uint16)(_rand % MAX_MI_ID);\n\t\t}\n\t\tmagicitemExist[_newID] = true;\t\n\n\t\tMagicItem memory _mi;\n\t\t_mi.id = _newID; \n\n\t\t/*\n\t\t_mi.rarity = (uint8)(_newID / 1000);\n\t\t_newID = _newID % 1000;\n\t\t_mi.object = (uint8)(_newID / 100);\n\t\t_newID = _newID % 100; \n\t\t_mi.version = (uint8)(_newID / 10);\n\t\t_newID = _newID % 10; \n\t\t_mi.state = (uint8)(_newID); \n\t*/\n\t\tmagicitems.push(_mi);\n\n\t\tmagicitemIndexToOwner[_mi.id] = msg.sender;\n\t\townerToNumMagicItem[msg.sender] = ownerToNumMagicItem[msg.sender].add(1);\n\n\t\temit NewMagicItem(msg.sender, _mi.id);\n\t\t\t\n\t}\n\n\tfunction use(uint16 _tokenId) public {\t\n\n\t\trequire(magicitemIndexToOwner[_tokenId] == msg.sender);\n\n\t\tuint8 _rand = (uint8)((uint256)(blockhash(block.number - 1)) % 10);\n\n\t\tif (_rand == 0){\n\t\t\tuint256 index = 0;\n\t\t\twhile (magicitems[index].id != _tokenId){\n\t\t\t\tindex++;\n\t\t\t}\n\t\t\tmagicitems[index] = magicitems[magicitems.length - 1];\n\t\t\tmagicitems.pop();\n\n\t\t\tdelete magicitemIndexToOwner[_tokenId];\n\t\t\tdelete magicitemExist[_tokenId];\n\t\t\townerToNumMagicItem[msg.sender] = ownerToNumMagicItem[msg.sender].sub(1);\n\t\t}\n\t\t\n\t\temit Destroyed(_tokenId, _rand);\n\t}\n}\n\n\n",
  "sourcePath": "/Users/jcaporossi/Documents/Alyra/alyra-blockchain-developer/chapter7/exercise7.1.4/contracts/MagicItemBase.sol",
  "compiler": {
    "name": "solc",
    "version": "0.6.10+commit.00c0fcaf.Emscripten.clang"
  },
  "schemaVersion": "3.2.3",
  "updatedAt": "2020-08-20T13:07:40.276Z",
  "devdoc": {
    "methods": {
      "owner()": {
        "details": "Returns the address of the current owner."
      },
      "renounceOwnership()": {
        "details": "Leaves the contract without owner. It will not be possible to call `onlyOwner` functions anymore. Can only be called by the current owner. NOTE: Renouncing ownership will leave the contract without an owner, thereby removing any functionality that is only available to the owner."
      },
      "transferOwnership(address)": {
        "details": "Transfers ownership of the contract to a new account (`newOwner`). Can only be called by the current owner."
      }
    },
    "stateVariables": {
      "MAX_MI_ID": {
        "details": "CONSTANTS"
      },
      "magicitemIndexToOwner": {
        "details": "A mapping from magic item IDs to the address that owns them. All magic items have  some valid owner address."
      },
      "magicitems": {
        "details": "An array containing MagicItem struct for all magic items in existence. The ID  of each magic item is actually an index into this array."
      }
    }
  },
  "userdoc": {
    "methods": {}
  }
}